{
  "contractName": "Polling",
  "abi": [
    {
      "inputs": [],
      "payable": false,
      "stateMutability": "nonpayable",
      "type": "constructor"
    },
    {
      "anonymous": false,
      "inputs": [
        {
          "indexed": false,
          "internalType": "string",
          "name": "winner",
          "type": "string"
        },
        {
          "indexed": false,
          "internalType": "uint256",
          "name": "voteCount",
          "type": "uint256"
        }
      ],
      "name": "GetWinner",
      "type": "event"
    },
    {
      "anonymous": false,
      "inputs": [
        {
          "indexed": false,
          "internalType": "address",
          "name": "voter",
          "type": "address"
        },
        {
          "indexed": false,
          "internalType": "string",
          "name": "option",
          "type": "string"
        }
      ],
      "name": "Voters",
      "type": "event"
    },
    {
      "constant": true,
      "inputs": [],
      "name": "isPoll",
      "outputs": [
        {
          "internalType": "bool",
          "name": "",
          "type": "bool"
        }
      ],
      "payable": false,
      "stateMutability": "view",
      "type": "function"
    },
    {
      "constant": true,
      "inputs": [],
      "name": "owner",
      "outputs": [
        {
          "internalType": "address",
          "name": "",
          "type": "address"
        }
      ],
      "payable": false,
      "stateMutability": "view",
      "type": "function"
    },
    {
      "constant": true,
      "inputs": [],
      "name": "poll",
      "outputs": [
        {
          "internalType": "string",
          "name": "title",
          "type": "string"
        }
      ],
      "payable": false,
      "stateMutability": "view",
      "type": "function"
    },
    {
      "constant": true,
      "inputs": [],
      "name": "pollEnd",
      "outputs": [
        {
          "internalType": "uint256",
          "name": "",
          "type": "uint256"
        }
      ],
      "payable": false,
      "stateMutability": "view",
      "type": "function"
    },
    {
      "constant": true,
      "inputs": [],
      "name": "pollStart",
      "outputs": [
        {
          "internalType": "uint256",
          "name": "",
          "type": "uint256"
        }
      ],
      "payable": false,
      "stateMutability": "view",
      "type": "function"
    },
    {
      "constant": true,
      "inputs": [],
      "name": "pollState",
      "outputs": [
        {
          "internalType": "enum Polling.State",
          "name": "",
          "type": "uint8"
        }
      ],
      "payable": false,
      "stateMutability": "view",
      "type": "function"
    },
    {
      "constant": true,
      "inputs": [
        {
          "internalType": "string",
          "name": "",
          "type": "string"
        }
      ],
      "name": "voteCount",
      "outputs": [
        {
          "internalType": "uint256",
          "name": "",
          "type": "uint256"
        }
      ],
      "payable": false,
      "stateMutability": "view",
      "type": "function"
    },
    {
      "constant": true,
      "inputs": [
        {
          "internalType": "address",
          "name": "",
          "type": "address"
        }
      ],
      "name": "votes",
      "outputs": [
        {
          "internalType": "string",
          "name": "vote",
          "type": "string"
        },
        {
          "internalType": "bool",
          "name": "voted",
          "type": "bool"
        }
      ],
      "payable": false,
      "stateMutability": "view",
      "type": "function"
    },
    {
      "constant": true,
      "inputs": [],
      "name": "getState",
      "outputs": [
        {
          "internalType": "enum Polling.State",
          "name": "",
          "type": "uint8"
        }
      ],
      "payable": false,
      "stateMutability": "view",
      "type": "function"
    },
    {
      "constant": false,
      "inputs": [
        {
          "internalType": "string",
          "name": "title",
          "type": "string"
        },
        {
          "internalType": "string[]",
          "name": "options",
          "type": "string[]"
        }
      ],
      "name": "createPoll",
      "outputs": [],
      "payable": false,
      "stateMutability": "nonpayable",
      "type": "function"
    },
    {
      "constant": true,
      "inputs": [],
      "name": "getPoll",
      "outputs": [
        {
          "components": [
            {
              "internalType": "string",
              "name": "title",
              "type": "string"
            },
            {
              "internalType": "string[]",
              "name": "options",
              "type": "string[]"
            }
          ],
          "internalType": "struct Polling.Poll",
          "name": "",
          "type": "tuple"
        }
      ],
      "payable": false,
      "stateMutability": "view",
      "type": "function"
    },
    {
      "constant": true,
      "inputs": [
        {
          "internalType": "string",
          "name": "option",
          "type": "string"
        }
      ],
      "name": "exists",
      "outputs": [
        {
          "internalType": "bool",
          "name": "",
          "type": "bool"
        }
      ],
      "payable": false,
      "stateMutability": "view",
      "type": "function"
    },
    {
      "constant": false,
      "inputs": [
        {
          "internalType": "string",
          "name": "option",
          "type": "string"
        }
      ],
      "name": "addVote",
      "outputs": [],
      "payable": false,
      "stateMutability": "nonpayable",
      "type": "function"
    },
    {
      "constant": false,
      "inputs": [],
      "name": "getWinner",
      "outputs": [
        {
          "internalType": "string",
          "name": "winOption",
          "type": "string"
        }
      ],
      "payable": false,
      "stateMutability": "nonpayable",
      "type": "function"
    }
  ],
  "bytecode": "0x608060405234801561001057600080fd5b50600080546001600160a01b031916331790556112d2806100326000396000f3fe608060405234801561001057600080fd5b50600436106100ea5760003560e01c80638e7ea5b21161008c578063a117527911610066578063a1175279146101b9578063ba7f7552146101c1578063d5e6ba5f146101d4578063d8bff5a5146101dc576100ea565b80638e7ea5b2146101895780638f58d3531461019e5780639192f1c8146101a6576100ea565b8063261a323e116100c8578063261a323e146101375780634eafecd91461014a5780637e3d71c31461015f5780638da5cb5b14610174576100ea565b806303c32278146100ef5780631865c57d1461010d57806322d7f78514610122575b600080fd5b6100f76101fd565b6040516101049190611136565b60405180910390f35b61011561037d565b6040516101049190611067565b61012a6103ba565b6040516101049190611059565b61012a610145366004610c67565b6103c3565b61015261045a565b6040516101049190611147565b61017261016d366004610c9c565b610460565b005b61017c6104f4565b604051610104919061102b565b610191610503565b6040516101049190611075565b6101156106f0565b6101726101b4366004610c67565b6106f9565b6101916108a2565b6101526101cf366004610c67565b610933565b610152610950565b6101ef6101ea366004610c41565b610956565b6040516101049291906110a6565b610205610a00565b604080516001805460606020601f60026000196101008688161502019094169390930492830181900402840181018552938301818152929391928492909184918401828280156102965780601f1061026b57610100808354040283529160200191610296565b820191906000526020600020905b81548152906001019060200180831161027957829003601f168201915b5050505050815260200160018201805480602002602001604051908101604052809291908181526020016000905b8282101561036f5760008481526020908190208301805460408051601f600260001961010060018716150201909416939093049283018590048502810185019091528181529283018282801561035b5780601f106103305761010080835404028352916020019161035b565b820191906000526020600020905b81548152906001019060200180831161033e57829003601f168201915b5050505050815260200190600101906102c4565b505050508152505090505b90565b60006006544210156103915750600061037a565b60065442101580156103a557506007544211155b156103b25750600261037a565b50600161037a565b60035460ff1681565b6000805b60025481101561044f57826040516020016103e29190611013565b6040516020818303038152906040528051906020012060018001828154811061040757fe5b90600052602060002001604051602001610421919061101f565b604051602081830303815290604052805190602001201415610447576001915050610455565b6001016103c7565b50600090505b919050565b60075481565b6000546001600160a01b031633146104935760405162461bcd60e51b815260040161048a906110e6565b60405180910390fd5b60408051808201909152828152602080820183905283516001916104bb918391870190610a1a565b5060208281015180516104d49260018501920190610a98565b50506003805460ff191660011790555050426006819055605a0160075550565b6000546001600160a01b031681565b60035460609060ff16151560011461052d5760405162461bcd60e51b815260040161048a906110f6565b61053561037d565b6008805460ff1916600183600281111561054b57fe5b0217905550600160085460ff16600281111561056357fe5b146105805760405162461bcd60e51b815260040161048a90611116565b6000805b6002548110156106b2578160056001800183815481106105a057fe5b906000526020600020016040516105b7919061101f565b90815260200160405180910390205411156106aa5760056001800182815481106105dd57fe5b906000526020600020016040516105f4919061101f565b908152602001604051809103902054915060018001818154811061061457fe5b600091825260209182902001805460408051601f60026000196101006001871615020190941693909304928301859004850281018501909152818152928301828280156106a25780601f10610677576101008083540402835291602001916106a2565b820191906000526020600020905b81548152906001019060200180831161068557829003601f168201915b505050505092505b600101610584565b507f2651b05c998a56561a0a779864b1ceb4b4526cac5c60627a400f910f4cf37bf282826040516106e4929190611086565b60405180910390a15090565b60085460ff1681565b60035460ff1615156001146107205760405162461bcd60e51b815260040161048a906110f6565b61072861037d565b6008805460ff1916600183600281111561073e57fe5b0217905550600260085460ff16600281111561075657fe5b146107735760405162461bcd60e51b815260040161048a90611106565b61077c816103c3565b151560011461079d5760405162461bcd60e51b815260040161048a906110c6565b6000546001600160a01b03163314156107c85760405162461bcd60e51b815260040161048a90611126565b33600090815260046020526040902060019081015460ff16151514156108005760405162461bcd60e51b815260040161048a906110d6565b336000908152600460209081526040909120825161082092840190610a1a565b5033600090815260046020526040908190206001908101805460ff1916821790559051600590610851908490611013565b90815260405190819003602001812080549092019091557f219cf540bcf3ac0c939abb54bb3476895cfe59e97987557b89ba1682fa8e57fe906108979033908490611039565b60405180910390a150565b60018054604080516020601f6002600019610100878916150201909516949094049384018190048102820181019092528281529183918301828280156109295780601f106108fe57610100808354040283529160200191610929565b820191906000526020600020905b81548152906001019060200180831161090c57829003601f168201915b5050505050905081565b805160208183018101805160058252928201919093012091525481565b60065481565b60046020908152600091825260409182902080548351601f600260001961010060018616150201909316929092049182018490048402810184019094528084529092918391908301828280156109ed5780601f106109c2576101008083540402835291602001916109ed565b820191906000526020600020905b8154815290600101906020018083116109d057829003601f168201915b5050506001909301549192505060ff1682565b604051806040016040528060608152602001606081525090565b828054600181600116156101000203166002900490600052602060002090601f016020900481019282601f10610a5b57805160ff1916838001178555610a88565b82800160010185558215610a88579182015b82811115610a88578251825591602001919060010190610a6d565b50610a94929150610af1565b5090565b828054828255906000526020600020908101928215610ae5579160200282015b82811115610ae55782518051610ad5918491602090910190610a1a565b5091602001919060010190610ab8565b50610a94929150610b0b565b61037a91905b80821115610a945760008155600101610af7565b61037a91905b80821115610a94576000610b258282610b2e565b50600101610b11565b50805460018160011615610100020316600290046000825580601f10610b545750610b72565b601f016020900490600052602060002090810190610b729190610af1565b50565b8035610b808161127b565b92915050565b600082601f830112610b9757600080fd5b8135610baa610ba58261117c565b611155565b81815260209384019390925082018360005b83811015610be85781358601610bd28882610bf2565b8452506020928301929190910190600101610bbc565b5050505092915050565b600082601f830112610c0357600080fd5b8135610c11610ba58261119d565b91508082526020830160208301858383011115610c2d57600080fd5b610c3883828461122b565b50505092915050565b600060208284031215610c5357600080fd5b6000610c5f8484610b75565b949350505050565b600060208284031215610c7957600080fd5b813567ffffffffffffffff811115610c9057600080fd5b610c5f84828501610bf2565b60008060408385031215610caf57600080fd5b823567ffffffffffffffff811115610cc657600080fd5b610cd285828601610bf2565b925050602083013567ffffffffffffffff811115610cef57600080fd5b610cfb85828601610b86565b9150509250929050565b6000610d118383610db0565b9392505050565b610d218161120a565b82525050565b610d21816111e4565b6000610d3b826111d7565b610d4581856111db565b935083602082028501610d57856111c5565b8060005b85811015610d915784840389528151610d748582610d05565b9450610d7f836111c5565b60209a909a0199925050600101610d5b565b5091979650505050505050565b610d21816111ef565b610d2181611215565b6000610dbb826111d7565b610dc581856111db565b9350610dd5818560208601611237565b610dde81611267565b9093019392505050565b6000610df3826111d7565b610dfd8185610455565b9350610e0d818560208601611237565b9290920192915050565b600081546001811660008114610e345760018114610e5757610e96565b607f6002830416610e458187610455565b60ff1984168152955085019250610e96565b60028204610e658187610455565b9550610e70856111cb565b60005b82811015610e8f57815488820152600190910190602001610e73565b5050850192505b505092915050565b6000610eab600e836111db565b6d24b73b30b634b21027b83a34b7b760911b815260200192915050565b6000610ed5600d836111db565b6c105b1c9958591e481d9bdd1959609a1b815260200192915050565b6000610efe600a836111db565b6927b7363c9030b236b4b760b11b815260200192915050565b6000610f246013836111db565b72141bdb1b081a5cc81b9bdd0818dc99585d1959606a1b815260200192915050565b6000610f536013836111db565b721d9bdd1a5b99c81c195c9a5bd908195b991959606a1b815260200192915050565b6000610f826012836111db565b713b37ba34b7339034b99033b7b4b7339037b760711b815260200192915050565b6000610fb06010836111db565b6f4f776e65722063616e277420766f746560801b815260200192915050565b8051604080845260009190840190610fe78282610db0565b915050602083015184820360208601526110018282610d30565b95945050505050565b610d218161037a565b6000610d118284610de8565b6000610d118284610e17565b60208101610b808284610d27565b604081016110478285610d18565b8181036020830152610c5f8184610db0565b60208101610b808284610d9e565b60208101610b808284610da7565b60208082528101610d118184610db0565b604080825281016110978185610db0565b9050610d11602083018461100a565b604080825281016110b78185610db0565b9050610d116020830184610d9e565b60208082528101610b8081610e9e565b60208082528101610b8081610ec8565b60208082528101610b8081610ef1565b60208082528101610b8081610f17565b60208082528101610b8081610f46565b60208082528101610b8081610f75565b60208082528101610b8081610fa3565b60208082528101610d118184610fcf565b60208101610b80828461100a565b60405181810167ffffffffffffffff8111828210171561117457600080fd5b604052919050565b600067ffffffffffffffff82111561119357600080fd5b5060209081020190565b600067ffffffffffffffff8211156111b457600080fd5b506020601f91909101601f19160190565b60200190565b60009081526020902090565b5190565b90815260200190565b6000610b80826111fe565b151590565b8061045581611271565b6001600160a01b031690565b6000610b8082611220565b6000610b80826111f4565b6000610b80826111e4565b82818337506000910152565b60005b8381101561125257818101518382015260200161123a565b83811115611261576000848401525b50505050565b601f01601f191690565b60038110610b7257fe5b611284816111e4565b8114610b7257600080fdfea365627a7a72315820888e348dd79c369936cf57d0bbb6ae6fd1abcf492057ee11bd54cac87fa482bb6c6578706572696d656e74616cf564736f6c63430005110040",
  "source": "pragma solidity >=0.4.22 <0.7.0;\r\npragma experimental ABIEncoderV2;\r\n\r\n// import \"truffle/Console.sol\";\r\n\r\n// pragma solidity >= 0.7.0<0.9.0;\r\n\r\ncontract Polling {\r\n    // TODO : check variable names if required rename it\r\n    address public owner;\r\n\r\n    constructor() public {\r\n        owner = msg.sender;\r\n    }\r\n\r\n    struct Poll {\r\n        string title;\r\n        string[] options;\r\n    }\r\n\r\n    struct Vote {\r\n        string vote;\r\n        bool voted;\r\n    }\r\n\r\n    // Voter[] public voters;\r\n    Poll public poll;\r\n    bool public isPoll;\r\n\r\n    // dict of voter and their vote data\r\n    mapping(address => Vote) public votes;\r\n    // each option and their vote count\r\n    mapping(string => uint256) public voteCount;\r\n\r\n    uint256 public pollStart;\r\n    uint256 public pollEnd;\r\n\r\n    enum State {\r\n        beforeStart,\r\n        afterEnd,\r\n        running\r\n    }\r\n\r\n    State public pollState;\r\n\r\n    event GetWinner(string winner, uint256 voteCount);\r\n    event Voters(address voter, string option);\r\n\r\n    modifier PollCreated() {\r\n        require(isPoll == true, \"Poll is not created\");\r\n        _;\r\n    }\r\n\r\n    function getState() public view returns (State) {\r\n        if (block.timestamp < pollStart) {\r\n            return State.beforeStart;\r\n        } else if (block.timestamp >= pollStart && block.timestamp <= pollEnd) {\r\n            return State.running;\r\n        } else {\r\n            return State.afterEnd;\r\n        }\r\n    }\r\n\r\n    function createPoll(string memory title, string[] memory options) public {\r\n        require(msg.sender == owner, \"Only admin\");\r\n        poll = Poll(title, options);\r\n        isPoll = true;\r\n\r\n        pollStart = block.timestamp;\r\n        pollEnd = block.timestamp + 90; //1 hour=60*60 seconds; replace 60 with 3600 for an 1hr\r\n    }\r\n\r\n    //explicit getter function for struct because the default getter doesn't return mapping and arrays\r\n    function getPoll() public view returns (Poll memory) {\r\n        return poll;\r\n    }\r\n\r\n    function exists(string memory option) public view returns (bool) {\r\n        for (uint256 i = 0; i < poll.options.length; i++) {\r\n            if (\r\n                keccak256(abi.encodePacked((poll.options[i]))) ==\r\n                keccak256(abi.encodePacked((option)))\r\n            ) {\r\n                return true;\r\n            }\r\n        }\r\n        return false;\r\n    }\r\n\r\n    function addVote(string memory option) public PollCreated {\r\n        pollState = getState();\r\n        require(pollState == State.running, \"voting period ended\");\r\n        // add require to check option is valid option is in poll.options\r\n        require(exists(option) == true, \"Invalid Option\");\r\n        require(msg.sender != owner, \"Owner can't vote\");\r\n        require(votes[msg.sender].voted != true, \"Already voted\");\r\n        votes[msg.sender].vote = option;\r\n        votes[msg.sender].voted = true;\r\n        voteCount[option] += 1;\r\n\r\n        emit Voters(msg.sender, option);\r\n    }\r\n\r\n    function getWinner() public PollCreated returns (string memory winOption) {\r\n        pollState = getState();\r\n        require(pollState == State.afterEnd, \"voting is going on\");\r\n        uint256 maxCount = 0;\r\n        for (uint256 i = 0; i < poll.options.length; i++) {\r\n            if (voteCount[poll.options[i]] > maxCount) {\r\n                maxCount = voteCount[poll.options[i]];\r\n                winOption = poll.options[i];\r\n            }\r\n        }\r\n        // console.log(\"===================solidity=================\");\r\n        // console.log(pollState);\r\n        emit GetWinner(winOption, maxCount);\r\n        return winOption;\r\n    }\r\n}\r\n",
  "sourcePath": "C:\\Users\\HP\\Desktop\\Blockchain\\polling-dapp\\src\\contracts\\polling.sol",
  "compiler": {
    "name": "solc",
    "version": "0.5.17+commit.d19bba13.Emscripten.clang"
  },
  "schemaVersion": "3.4.9",
  "updatedAt": "2022-11-07T21:00:10.469Z",
  "networkType": "ethereum",
  "devdoc": {
    "methods": {}
  },
  "userdoc": {
    "methods": {}
  }
}